S00D0000466F746F322E737265634D
S11300000C9434000C9449000C9449000C9449005D
S11300100C9449000C9449000C9449000C94490038
S11300200C9449000C9449000C9449000C94490028
S11300300C9449000C9449000C9449000C94490018
S11300400C9449000C9449000C9449000C94490008
S11300500C9449000C9449000C9449000C944900F8
S11300600C9449000C94490011241FBECFEFD8E032
S1130070DEBFCDBF11E0A0E0B1E0EAE9F3E002C0E9
S113008005900D92A231B107D9F70E948E000C940D
S1130090CB010C940000549A529A579A08955C9A92
S11300A05A9A5F9A0895219A08952098289A089553
S11300B0E4E6F0E080818E7F80830895ECE7F0E051
S11300C08081807F808380816F70682B6083089536
S11300D0ECE7F0E080818F73808380816295660F06
S11300E0660F607C682B60830895ECE7F0E0808104
S11300F08F7D8083EAE7F0E0808180648083808163
S113010084FFFDCF8091780020917900EAE7F0E048
S113011090819061908390E0922B0895CF93DF9328
S113012000D000D01F92CDB7DEB7CE0101960E9459
S11301304B00CE0102960E945300CE0103960E940A
S11301405500CE0104960E94EF00CE0104960E9451
S1130150F50060E071E0CE0104960E941401CE0126
S113016001960E944F00CE0105960E94580084E833
S113017080937A0066E0CE0105960E945E0061E0FD
S1130180CE0105960E946800CE0105960E94750076
S1130190BC01CE0104960E94A20160E171E0CE018F
S11301A004960E941401CE0105960E9475008C32BB
S11301B0914034F4CE0101960E944F005C9805C032
S11301C0CE0101960E944F005F988FEF9EE924E2D2
S11301D0815090402040E1F700C00000D5CFE4E614
S11301E0F0E080818D7F80830895519A5098109219
S11301F0C5008BE98093C400E2ECF0E08081866066
S11302008083E1ECF0E0808188618083E0ECF0E0C1
S11302108081826080830895E0ECF0E0808185FF36
S1130220FDCF6093C60008950F931F93CF93DF9380
S1130230EB016881662341F08C012196C8010E947C
S11302400C0169916111FACFDF91CF911F910F9148
S113025008958F929F92AF92BF92CF92DF92EF92C6
S1130260FF921F93CF93DF93CDB7DEB72A970FB6D4
S1130270F894DEBF0FBECDBF6C01CB01BA0110E014
S11302800F2EFAE08F2E912CA12CB12CF02DEE2400
S1130290E394F12CEC0EFD1EE10EF11CA50194017A
S11302A00E94A901605DF70160831F5F622F732FB5
S11302B0842F952F611571058105910541F711234F
S11302C069F01150E1E0F0E0EC0FFD1FE10FF11DCA
S11302D06081C6010E940C011111F3CF2A960FB65A
S11302E0F894DEBF0FBECDBFDF91CF911F91FF9079
S11302F0EF90DF90CF90BF90AF909F908F90089534
S1130300CF92DF92EF92FF92CF93DF93EC016A01D9
S11303107B0177235CF46DE20E940C01F094E0947D
S1130320D094C094C11CD11CE11CF11CB701A601DE
S1130330CE010E942901DF91CF91FF90EF90DF90D1
S1130340CF900895AB01770F660B770B0E94800165
S11303500895A1E21A2EAA1BBB1BFD010DC0AA1F02
S1130360BB1FEE1FFF1FA217B307E407F50720F01A
S1130370A21BB30BE40BF50B661F771F881F991F95
S11303801A9469F760957095809590959B01AC01DE
S10D0390BD01CF010895F894FFCFDA
S113039A5465747320666F746F6F64706F72610A48
S10503AA0D0040
S9030000FC
