S00C0000415652352E73726563FA
S11300000C9434000C943E000C943E000C943E007E
S11300100C943E000C943E000C943E000C943E0064
S11300200C943E000C943E000C943E000C943E0054
S11300300C943E000C943E000C943E000C943E0044
S11300400C943E000C943E000C943E000C943E0034
S11300500C943E000C943E000C943E000C943E0024
S11300600C943E000C943E0011241FBECFEFD8E048
S1130070DEBFCDBF0E9440000C9471000C940000C0
S1130080549A5C9A4FEF50E020E030E05C982115E0
S1130090310529F180E090E0EAECF1E03197F1F7E5
S11300A000C00000019682179307B1F75C9A4115CE
S11300B0510561F080E090E0EAECF1E03197F1F76E
S11300C000C00000019684179507B0F32F5F3F4FDF
S11300D0415051092115F1E03F07C1F6FFCF5C9A69
S10900E0E9CFF894FFCF04
S9030000FC
