S00C0000415652342E73726563FB
S11300000C9436000C9453000C9453000C9453003D
S11300100C9453000C9453000C9453000C94530010
S11300200C9453000C9453000C9453000C94530000
S11300300C9453000C94B3000C9453000C94530090
S11300400C9453000C9453000C9453000C945300E0
S11300500C9453000C9453000C9453000C945300D0
S11300600C9453000C945300D400D90011241FBEE7
S1130070CFEFD8E0DEBFCDBF21E0A0E0B1E001C00A
S11300801D92A230B207E1F710E0C5E3D0E004C04E
S11300902197FE010E94DE00C433D107C9F70E94F4
S11300A055000C94E4000C940000CF93DF9300D02F
S11300B0CDB7DEB7549A579A529A2FE78FE492E15C
S11300C0215080409040E1F700C000005F9A5A9AA6
S11300D05C9ACE0101960E9486007894CE01019626
S11300E00E94A9004F97D0F360E070E0CE01019622
S11300F00E94AE005A982FEB84ED91E0215080408D
S11301009040E1F700C000005A9AE8CFDC01E4E631
S1130110F0E09081977F90838FB7F8942CE63BEFC3
S113012030938500209384008FBFE1E8F0E0908154
S113013095609083EFE6F0E0908191609083119652
S11301403C932E930895EFE6F0E080818E7F8083C8
S11301500895809100019091010108957093010127
S11301606093000108951F920F920FB60F9211240D
S11301708F939F93EF93FF93F8948CE69BEF909368
S11301808500809384007894E0E0F1E0808191819F
S1130190019691838083FF91EF919F918F910F90AE
S11301A00FBE0F901F90189580E091E00E9486008A
S11301B0089580E091E00E94A3000895EE0FFF1FD0
S11301C00590F491E02D099410E0C5E3D0E004C05B
S11301D0FE010E94DE002196C633D107C9F7F894C8
S10501E0FFCF4B
S9030000FC
