:100000000C9434000C943E000C943E000C943E0082
:100010000C943E000C943E000C943E000C943E0068
:100020000C943E000C943E000C943E000C943E0058
:100030000C943E000C943E000C943E000C943E0048
:100040000C943E000C943E000C943E000C943E0038
:100050000C943E000C943E000C943E000C943E0028
:100060000C943E000C943E0011241FBECFEFD8E04C
:10007000DEBFCDBF0E9440000C94A0000C94000095
:10008000CF93DF931F92CDB7DEB7CE0101960E94CA
:10009000860020E040E061E0CE0101960E948E00E3
:1000A0002FE78FE492E1215080409040E1F700C0BB
:1000B0000000CE0101960E948A0020E041E060E04D
:1000C000CE0101960E948E002FE78FE492E121502D
:1000D00080409040E1F700C00000CE0101960E94F0
:1000E0008A0021E040E060E0CE0101960E948E008F
:1000F0002FE78FE492E1215080409040E1F700C06B
:100100000000CE0101960E948A00C3CF549A529AF1
:10011000579A08955C9A5A9A5F9A08951F93CF93BD
:10012000DF93162FD42FC22F0E948A0011115C98E2
:10013000D1115A98C1115F98DF91CF911F91089505
:04014000F894FFCF61
:00000001FF
