S00C0000415652332E73726563FC
S11300000C9434000C9449000C9449000C947F0027
S11300100C9449000C9449000C9449000C94490038
S11300200C9449000C9449000C9449000C94490028
S11300300C9449000C9449000C9449000C94490018
S11300400C9449000C9449000C9449000C94490008
S11300500C9449000C9449000C9449000C944900F8
S11300600C9449000C94490011241FBECFEFD8E032
S1130070DEBFCDBF11E0A0E0B1E0E2EBF1E002C0F1
S113008005900D92AC30B107D9F70E944B000C9447
S1130090D7000C940000CF93DF9300D0CDB7DEB728
S11300A0CE0101960E949D00CE0101960E94A300FC
S11300B060E071E0CE0101960E94C200CE0102967A
S11300C00E946C00CE0102960E9474007894FFCFC7
S11300D0549A529A579A08950E9468002098289A30
S11300E05C9A5A9A5F9A0895E8E6F0E0808181600C
S11300F08083EBE6F0E080818160808308951F9225
S11301000F920FB60F9211242F938F939F939BB14D
S113011080E189278BB92FE78FE492E12150804059
S11301209040E1F700C00000D89A9F918F912F91E1
S11301300F900FBE0F901F901895E4E6F0E08081B9
S11301408D7F80830895519A50981092C5008BE951
S11301508093C400E2ECF0E0808186608083E1EC6F
S1130160F0E0808188618083E0ECF0E0808182604F
S113017080830895E0ECF0E0808185FFFDCF6093FB
S1130180C60008950F931F93CF93DF93EB0168810B
S1130190662341F08C012196C8010E94BA0069913E
S11301A06111FACFDF91CF911F910F910895F894C7
S10501B0FFCF7B
S10F01B24156525F424F4152440D0A0076
S9030000FC
