:100000000C9434000C943E000C943E000C943E0082
:100010000C943E000C943E000C943E000C943E0068
:100020000C943E000C943E000C943E000C943E0058
:100030000C943E000C943E000C943E000C943E0048
:100040000C943E000C943E000C943E000C943E0038
:100050000C943E000C943E000C943E000C943E0028
:100060000C943E000C943E0011241FBECFEFD8E04C
:10007000DEBFCDBF0E9442000C94B1000C94000082
:10008000219A0895CF93DF9300D01F92CDB7DEB7AA
:10009000CE0101960E948800CE0102960E94400087
:1000A000CE0103960E94A200CE0103960E94A500F5
:1000B0008823D1F3CE0101960E948C0020E040E01D
:1000C00061E0CE0101960E949000CE0103960E944D
:1000D000A5008823D1F3CE0101960E948C0020E078
:1000E00041E060E0CE0101960E949000CE010396AF
:1000F0000E94A5008823D1F3CE0101960E948C00B6
:1001000021E040E060E0CE0101960E949000CCCF5B
:10011000549A529A579A08955C9A5A9A5F9A0895F7
:100120001F93CF93DF93162FD42FC22F0E948C00E2
:1001300011115C98D1115A98C1115F98DF91CF913C
:100140001F9108952098289A0895189BFECF87E95B
:100150009AE30197F1F700C0000083B180958170A8
:060160000895F894FFCFA2
:00000001FF
