S00C0000415652362E73726563F9
S11300000C9434000C943E000C943E000C943E007E
S11300100C943E000C943E000C943E000C943E0064
S11300200C943E000C943E000C943E000C943E0054
S11300300C943E000C943E000C943E000C943E0044
S11300400C943E000C943E000C943E000C943E0034
S11300500C943E000C943E000C943E000C943E0024
S11300600C943E000C943E0011241FBECFEFD8E048
S1130070DEBFCDBF0E9440000C9473000C940000BE
S1130080CF93DF931F92CDB7DEB7CE0101960E94C6
S1130090500040E060E8CE0101960E946A00FFCF64
S11300A0E4E6F0E080818F7D8083569A559A5E9ACB
S11300B05D9A83E084BD84E085BD84B5806884BD99
S11300C084B58F7B84BD84B5806284BD84B58F7E06
S11300D084BD0895442319F0413019F0089567BD93
S10D00E0089568BD0895F894FFCF59
S9030000FC
