S00D0000466F746F312E737265634E
S11300000C9434000C943E000C943E000C943E007E
S11300100C943E000C943E000C943E000C943E0064
S11300200C943E000C943E000C943E000C943E0054
S11300300C943E000C943E000C943E000C943E0044
S11300400C943E000C943E000C943E000C943E0034
S11300500C943E000C943E000C943E000C943E0024
S11300600C943E000C943E0011241FBECFEFD8E048
S1130070DEBFCDBF0E9482000C94D9000C94000016
S1130080E4E6F0E080818E7F808308956770606885
S113009060937A00442329F0EAE7F0E080818062EB
S11300A080830895ECE7F0E08081807F8083808105
S11300B06F70682B60830895ECE7F0E080818F73A4
S11300C0808380816295660F660F607C682B6083F5
S11300D00895ECE7F0E080818F7D8083EAE7F0E02B
S11300E0808180648083808184FFFDCF809178004B
S11300F020917900EAE7F0E090819061908390E0AC
S1130100922B0895CF93DF9300D0CDB7DEB7CE0105
S113011001960E94BF00CE0102960E94400040E07A
S113012064E0CE0102960E94460066E0CE0102968B
S11301300E94520061E0CE0102960E945C00CE0152
S113014002960E9469008C32914044F420E040E021
S113015061E0CE0101960E94C70007C021E040E0A3
S113016060E0CE0101960E94C7008FE799EA23E080
S1130170815090402040E1F700C00000E0CF549A45
S1130180529A579A08955C9A5A9A5F9A08951F93BF
S1130190CF93DF93162FD42FC22F0E94C3001111C7
S11301A05C98D1115A98C1115F98DF91CF911F913A
S10901B00895F894FFCF4E
S9030000FC
